:100000000C9459000C9481000C9481000C94810094
:100010000C9481000C9481000C9481000C9481005C
:100020000C9481000C9481000C9481000C9481004C
:100030000C9481000C9481000C9481000C9481003C
:100040000C9487070C9481000C9455070C942F078F
:100050000C9481000C9481000C9481000C9481001C
:100060000C94D1070C9481000000000025002800AA
:100070002B00040404040404040402020202020229
:10008000030303030303010204081020408001025C
:1000900004081020010204081020000000080002DB
:1000A0000100000304070000000000000000F00849
:1000B000F00A11241FBECFEFD8E0DEBFCDBF22E093
:1000C000A6E6B1E001C01D92AC3FB207E1F711E036
:1000D000A0E0B1E0E4E8FAE102C005900D92A63696
:1000E000B107D9F710E0C8E5D0E004C02197FE01C0
:1000F0000E942F0BC735D107C9F70E946D090C94D8
:10010000350D0C9400000895AF92BF92CF92DF920C
:10011000EF92FF920F931F93CF93DF936C017B01BC
:100120008B01040F151FEB015E01AE18BF08C0174D
:10013000D10759F06991D601ED91FC910190F081C0
:10014000E02DC6010995892B79F7C501DF91CF9183
:100150001F910F91FF90EF90DF90CF90BF90AF90E5
:100160000895FC01448155816081718183ED92E0A5
:100170000C94840040E150E066E471E083ED92E08D
:100180000C948400FC01538D448D252F30E0842F86
:1001900090E0821B930B541710F0CF9608950197AF
:1001A0000895FC01918D828D981761F0A28DAE0F9C
:1001B000BF2FB11D5D968C91928D9F5F9F73928F23
:1001C00090E008958FEF9FEF0895FC01918D828D4F
:1001D000981731F0828DE80FF11D858D90E008951C
:1001E0008FEF9FEF0895FC01918D228D892F90E074
:1001F000805C9F4F821B91098F73992708958AE233
:1002000092E00E94F30021E0892B09F420E0822F84
:100210000895FC01A48DA80FB92FB11DA35ABF4F9B
:100220002C91848D90E001968F739927848FA689F5
:10023000B7892C93A089B1898C91837080648C9349
:10024000938D848D981306C00288F389E02D8081F8
:100250008F7D80830895EF92FF920F931F93CF932A
:10026000DF93EC0181E0888F9B8D8C8D98131AC0F1
:10027000E889F989808185FF15C09FB7F894EE89D8
:10028000FF896083E889F989808183708064808335
:100290009FBF81E090E0DF91CF911F910F91FF9080
:1002A000EF900895F62E0B8D10E00F5F1F4F0F7328
:1002B0001127E02E8C8D8E110CC00FB607FCFACFE3
:1002C000E889F989808185FFF5CFCE010E94090177
:1002D000F1CFEB8DEC0FFD2FF11DE35AFF4FF082B4
:1002E0009FB7F8940B8FEA89FB8980818062CFCF1A
:1002F000CF93DF93EC01888D8823B9F0AA89BB895D
:10030000E889F9898C9185FD03C0808186FD0DC047
:100310000FB607FCF7CF8C9185FFF2CF808185FF68
:10032000EDCFCE010E940901E9CFDF91CF91089571
:1003300090E0FC01E656FF4F2491FC01EA57FF4F85
:100340003491FC01EE58FF4FE491EE23C9F02223D3
:1003500039F0233001F1A8F4213019F1223029F1CC
:10036000F0E0EE0FFF1FE859FF4FA591B4918FB752
:10037000F894EC91611126C030953E233C938FBFD9
:1003800008952730A9F02830C9F0243049F780912A
:1003900080008F7D03C0809180008F7780938000E4
:1003A000DFCF84B58F7784BDDBCF84B58F7DFBCF66
:1003B0008091B0008F778093B000D2CF8091B00051
:1003C0008F7DF9CF3E2BDACF3FB7F8948091D501DE
:1003D0009091D601A091D701B091D80126B5A89BE4
:1003E00005C02F3F19F00196A11DB11D3FBFBA2FC7
:1003F000A92F982F8827BC01CD01620F711D811D87
:10040000911D42E0660F771F881F991F4A95D1F70B
:10041000089521E001C0220F6A95EAF7DC011C96DD
:100420002C931C971A965C934E931997ED91FC911F
:100430000484F585E02D60E0099408950895DC01B9
:10044000ED91FC910684F785E02D41E0099581E06E
:1004500090E00895DC01ED91FC910684F785E02D94
:1004600040E00994CF93DF93CDB7DEB728970FB65E
:10047000F894DEBF0FBECDBF409106015091070139
:1004800060910801709109014D835E836F837887C5
:1004900040910A0150910B0160910C0170910D0186
:1004A00049835A836B837C832091DA02821710F090
:1004B0008FEF820F90E03091DB028C0F9D1FFC01CB
:1004C000303181F4243071F46181606883ED92E011
:1004D00028960FB6F894DEBF0FBECDBFDF91CF9147
:1004E0000C942A026581F1CF61E00E942A028BE31D
:1004F0009FE10197F1F708958F929F92AF92BF927B
:10050000CF92DF92EF92FF920F931F93CF93DF93DF
:10051000EC01423018F08C8188608C834F836887AF
:10052000222329F0413019F48C8184608C830E944D
:10053000E4014B015C0184E6C82ED12CE12CF12CA6
:100540000E94E401681979098A099B09683E734091
:1005500081059105A8F321E0C21AD108E108F1084C
:1005600088EE880E83E0981EA11CB11CC114D10432
:10057000E104F10429F76C8164FD5FC0E881F98131
:100580000684F785E02D42E063E0CE0109958BE417
:1005900096E40197F1F7E881F9810684F785E02D6B
:1005A00042E063E0CE01099503E512E0C80101973E
:1005B000F1F7E881F9810684F785E02D42E063E0F8
:1005C000CE010995C8010197F1F7E881F981068408
:1005D000F785E02D42E062E0CE010995C801019760
:1005E000F1F76C816062CE010E942A028BEE90E0EE
:1005F0000197F1F784E08D836CE0CE010E942A021E
:10060000CE010E94740282E08E8366E0CE010E94D9
:100610002A02E881F9810484F585E02D6FEFCE018F
:10062000DF91CF911F910F91FF90EF90DF90CF90CE
:10063000BF90AF909F908F9009946062CE010E940E
:100640002A028BE496E40197F1F76C816062CE0197
:100650000E942A0203E512E0C8010197F1F76C81BC
:100660006062CE010E942A02B9CF089508952091B8
:10067000A701260F3327331F21323105ECF42091D7
:100680000002FC0190E080E0243069F082E00895EF
:10069000A091A7012191AC0149575E4FA40FB52F3E
:1006A000B11D2C930196861798F38091A701680FCE
:1006B0006093A70180E0089581E008951092000200
:1006C00081E08093FF011092DA0161E082E10E94F3
:1006D000980161E083E10E949801E9EBF0E08081FC
:1006E0008E7F808380818D7F808388E48093B800B3
:1006F00085E48093BC000895CF93DF9391E09093BD
:1007000086018823B9F0C091B800D091BA008091D9
:10071000BC008A7B8093BC0060E082E10E9498016B
:1007200060E083E10E9498010E945E03D093BA00CA
:10073000C093B800DF91CF910895CF92DF92EF92EE
:10074000FF920F931F93CF93DF93D091290281E003
:10075000D13208F09CC0C09128020E94E4016B01D4
:100760007C018091000281116CC082E080930002C4
:1007700081E08093FF018FEF8093FE011092FD01D5
:10078000D093FC01A8E0B2E0ECEDF1E080E0D813FA
:100790008DC01092DB018091DB01CC0FC82BC09380
:1007A000DB018091DA01813009F084C01092DA0116
:1007B0000E94E4016B017C018091DB018093BB000E
:1007C0008091020290910302A0910402B09105026F
:1007D000892B8A2B8B2BA1F00E94E401009102024D
:1007E0001091030220910402309105026C197D09D9
:1007F0008E099F09061717072807390708F442C012
:100800008091BC0083FDD8CF85EC8093BC000E9412
:10081000E4016B017C0180910002823009F44CC03C
:100820008091FE018F3F09F469C08091FE01803202
:1008300009F466C08091FE01803309F463C084E04E
:1008400026C08091020290910302A0910402B0910F
:100850000502892B8A2B8B2B09F483CF0E94E4019C
:1008600000910202109103022091040230910502CE
:100870006C197D098E099F09061717072807390784
:1008800008F06FCF809101020E947C0385E01092F6
:1008900007021092290210920602DF91CF911F9158
:1008A0000F91FF90EF90DF90CF9008959D919193DD
:1008B0008F5F6DCF85EEA9CF8091020290910302E8
:1008C000A0910402B0910502892B8A2B8B2B09F48D
:1008D000A2CF0E94E4010091020210910302209134
:1008E0000402309105026C197D098E099F090617D3
:1008F00017072807390708F08ECFC4CF80E0C7CF8D
:1009000082E0C5CF83E0C3CF0895E091CF0180910D
:10091000CE01E81730F4F0E0EA59FE4F808190E014
:1009200008958FEF9FEF08959091CF018091CE01B0
:100930002FEF3FEF981748F4E92FF0E0EA59FE4F08
:10094000208130E09F5F9093CF01C901089580918D
:10095000CE019091CF01891B990B0895CF92DF9220
:10096000EF92FF920F931F93CF93DF937C01CB0104
:100970008A0120910602222389F0EB016B01C40E4B
:10098000D51ECC15DD0569F06991D701ED91FC917B
:100990000190F081E02DC7010995F3CF642F0E94EB
:1009A0003703C801DF91CF911F910F91FF90EF9016
:1009B000DF90CF900895CF93DF931F92CDB7DEB72E
:1009C0006983209106022223F9F020912902203226
:1009D00058F021E030E0FC013383228390E080E096
:1009E0000F90DF91CF91089580910702E82FF0E0FA
:1009F000E85FFD4F998190838F5F8093070280931A
:100A0000290281E090E0ECCF61E0CE0101960E94E6
:100A10003703F7CFFC0123812223E1F08181682B8A
:100A20006083828191E09093060280932802109265
:100A300007021092290287EC92E00E94DB040E94D8
:100A40009D03282F30E081E090E0232B11F090E00F
:100A500080E0089530E020E0F6CFEF92FF920F9310
:100A60001F93CF938C01FC0184E0C0E0262F30E07F
:100A700060FF02C09589C92BB901759567958150B2
:100A800031968111F3CF413011F4F8014489F80116
:100A90006585C62BC42B7801FEE0EF0EF11CF80132
:100AA00062896C2BC7010E940A05F8016289609572
:100AB0006C23C701CF911F910F91FF90EF900C9481
:100AC0000A050F931F93CF93DF93062F0F704230C9
:100AD00041F440E0602FDF91CF911F910F910C9472
:100AE0002D05142FEC0170E084E0759567958A95CB
:100AF000E1F7CE010E942D05412F602FCE01EBCFF3
:100B0000FC0184858823A1F02185328521153105DA
:100B100021F4611107C0158606C021303105D9F7CF
:100B20006111F9CF85876585CF010E960C940A0572
:100B30000895EF92FF920F931F93CF93DF93EC01F1
:100B4000062FF42EE22E8B85888B1092CF01109207
:100B5000CE0110920702109229020E945E038DE1DD
:100B600092E09093CD018093CC018EE192E090933E
:100B7000CB018093CA01888911E01093060280930B
:100B800028020E949D0381111CC0198B87EC92E002
:100B90000E9494048E878989882339F01F861C82DD
:100BA00060E0CE010E960E940A052E2D4F2D602F7B
:100BB000CE01DF91CF911F910F91FF90EF900C9498
:100BC0007C02198AE8CF90E080E00895FC018081E2
:100BD0009181009711F00C94D10B08950E94170D8C
:100BE0000F931F93CF93DF93EC0188819981009736
:100BF00059F02A813B812617370730F081E0DF91D9
:100C0000CF911F910F9108958B016F5F7F4F0E94CD
:100C10005A0C009759F0998388831B830A832C818F
:100C20003D81232B59F7FC011082E8CF80E0E7CF0C
:100C3000EF92FF920F931F93CF93DF93EC017B0111
:100C40008A01BA010E94F00528813981811114C0FE
:100C50002115310519F0C9010E94D10B19821882A2
:100C60001D821C821B821A82CE01DF91CF911F91BF
:100C70000F91FF90EF9008951D830C83B701C90178
:100C80000E942E0DF1CFAF92BF92CF92DF92EF92E2
:100C9000FF920F931F93CF93DF93EC016B015A01E7
:100CA00079012417350720F48B2D5901E42EF82EF5
:100CB000198218821B821A821D821C8250E040E039
:100CC00060E671E0CE010E941806D60114960D91DF
:100CD0001C91A016B10628F5E016F10608F487016C
:100CE000D601ED91FC911197E00FF11FF080108279
:100CF0006D917C916A0D7B1D61157105F1F0FB0111
:100D000001900020E9F73197AF01461B570BCE0148
:100D10000E941806F60180819181080F191FD801E1
:100D2000FC92CE01DF91CF911F910F91FF90EF9038
:100D3000DF90CF90BF90AF90089588819981009700
:100D400011F00E94D10B198218821D821C821B8215
:100D50001A82E0CFEF92FF920F931F93CF93DF930E
:100D600000D0CDB7DEB7EE24E3948AE292E00E9491
:100D7000F300892B69F18AE292E00E94D100F82EFB
:100D800089831A820091F6021091F7020F5F1F4FBC
:100D9000B80182EF92E00E94F005882399F020913B
:100DA000F2023091F3028091F6029091F702BE01B7
:100DB0006F5F7F4F820F931F0E942E0D1093F702DB
:100DC0000093F6028AE0F812D0CFE092D901CDCF9D
:100DD0000F900F90DF91CF911F910F91FF90EF90A7
:100DE00008950E94FF0081110C94AA06089585EDD4
:100DF0008093BC008091020290910302A0910402B2
:100E0000B09105020796A11DB11D23E0B695A795E7
:100E1000979587952A95D1F72091BC0024FD03C0B2
:100E200010920002089540910202509103026091D5
:100E3000040270910502452B462B472B69F300975E
:100E4000A105B10541F025E32A95F1F700000197CE
:100E5000A109B109E1CF809101020C947C031F929A
:100E60000F920FB60F9211242F933F934F935F93DE
:100E70006F937F938F939F93AF93BF93EF93FF9362
:100E80008AE292E00E940901FF91EF91BF91AF9138
:100E90009F918F917F916F915F914F913F912F9192
:100EA0000F900FBE0F901F9018951F920F920FB6C4
:100EB0000F9211242F938F939F93EF93FF93E091C1
:100EC0003A02F0913B028081E0914002F0914102B0
:100ED00082FD1BC09081809143028F5F8F732091B0
:100EE0004402821741F0E0914302F0E0E65DFD4FDD
:100EF000958F80934302FF91EF919F918F912F9156
:100F00000F900FBE0F901F9018958081F4CF1F9205
:100F10000F920FB60F9211242F933F938F939F93AD
:100F2000AF93BF938091D1019091D201A091D30151
:100F3000B091D4013091D00123E0230F2D3758F523
:100F40000196A11DB11D2093D0018093D1019093F2
:100F5000D201A093D301B093D4018091D501909197
:100F6000D601A091D701B091D8010196A11DB11D64
:100F70008093D5019093D601A093D701B093D80167
:100F8000BF91AF919F918F913F912F910F900FBE85
:100F90000F901F90189526E8230F0296A11DB11DF2
:100FA000D2CF1F920F920FB60F9211242F933F931F
:100FB0004F935F936F937F938F939F93AF93BF9361
:100FC000EF93FF938091B900887F803609F44AC07F
:100FD000F0F5883209F4A7C018F5803109F49BC0F8
:100FE000B8F4882309F4F9C0883009F494C0FF915B
:100FF000EF91BF91AF919F918F917F916F915F9191
:101000004F913F912F910F900FBE0F901F90189509
:10101000883109F488C0803251F78093FE0114C0F2
:10102000803409F49DC040F48033B9F38833F9F675
:101030008093FE0185ECB0C0803509F485C0883509
:1010400009F496C0883499F60E94F706D0CF883903
:1010500009F48CC038F5883729F050F4883611F03F
:10106000803729F683E0809300021092C90157C0AF
:10107000883809F47BC0803919F0803809F0B7CF7F
:101080008091C901803208F071C0E091C90181E00E
:101090008E0F8093C9018091BB00F0E0E755FE4FB1
:1010A00080833DC0803B39F0E0F4803A09F479C098
:1010B000883A09F09CCF84E0809300021092A80146
:1010C0001092A701E091CC01F091CD01099580919A
:1010D000A70181110FC081E08093A70110928701C1
:1010E00009C0803C09F4A6CF883C09F4A3CF883B13
:1010F00009F07DCFE091A80181E08E0F8093A801D7
:10110000F0E0E957FE4F80818093BB009091A801E9
:101110008091A70129C08091DB018093BB0085EC01
:101120008093BC0064CF9091FD018091FC019817E1
:1011300058F5E091FD0181E08E0F8093FD01F0E014
:10114000E452FE4F8081E9CFE091FD0181E08E0FF6
:101150008093FD018091BB00F0E0E452FE4F80835C
:101160009091FD018091FC019817C8F285E8D8CFD5
:10117000E091FD0181E08E0F8093FD018091BB0025
:10118000F0E0E452FE4F80838091FF0181115CCF3B
:1011900081E08093DA0184EA8093BC00109200021F
:1011A00026CF85EC8093BC00109200028091C9018B
:1011B000803230F4E091C901F0E0E755FE4F108233
:1011C0006091C90170E0E091CA01F091CB0189EA18
:1011D00091E009951092C9010ACF1092FE0134CF17
:1011E000EAE2F2E01382128288EE93E0A0E0B0E03F
:1011F00084839583A683B78322E131E03183208302
:1012000025EC30E03587248724EC30E037872687CB
:1012100020EC30E0318B208B21EC30E0338B228BC3
:1012200022EC30E0358B248B26EC30E0378B268B9C
:10123000118E128E138E148EE7ECF2E0138212825E
:1012400084839583A683B78384E291E0918380832E
:10125000E2EFF2E011821082138212821582148270
:1012600050E040E060E671E0CF010E941806ECEE2D
:10127000F2E011821082138212821582148250E0F1
:1012800040E060E671E0CF010E941806E3EDF2E075
:101290001382128286E391E091838083108A8FEF1C
:1012A00087871686118A87E28387148615861286B9
:1012B000118684E0828B82E0838B81E0848B80E1E5
:1012C000858B80E2868B80E4878B80E8808F50E07E
:1012D00040E063E0CF010C940902CF93DF93CDB7D8
:1012E000DEB762970FB6F894DEBF0FBECDBF78941D
:1012F00084B5826084BD84B5816084BD85B582601B
:1013000085BD85B5816085BD80916E0081608093CB
:101310006E00109281008091810082608093810034
:101320008091810081608093810080918000816044
:10133000809380008091B10084608093B10080919F
:10134000B00081608093B00080917A0084608093C7
:101350007A0080917A00826080937A0080917A008E
:10136000816080937A0080917A00806880937A000F
:101370001092C100E0913A02F0913B0282E080833A
:10138000E0913602F09137021082E0913802F0913C
:1013900039028FEC808310924202E0913E02F0917C
:1013A0003F0286E08083E0913C02F0913D02808123
:1013B00080618083E0913C02F0913D0280818860F1
:1013C0008083E0913C02F0913D02808180688083BF
:1013D000E0913C02F0913D0280818F7D808320E08E
:1013E00042E060E183ED92E00E9499050E94BA001C
:1013F0008091D901882309F46AC01092D9018091A3
:10140000F6029091F702892B79F125E030E041E076
:1014100050E062EF72E0CE0101960E944306809197
:10142000EC029091ED02009709F45BC069817A812A
:101430006115710509F453C04091EE025091EF021D
:101440002D813E814217530708F449C00E942E0D9A
:101450008D819E819093F1028093F0021E821D8205
:10146000CE0101960E94E6058091F0029091F10272
:10147000892B71F067E571E08091EC029091ED02AB
:101480000E94250D892B21F483ED92E00E947402C5
:101490008091F0029091F102892B89F00091EC0289
:1014A0001091ED026CE571E0C8010E94250D892BB9
:1014B00079F583ED92E00E9474020E94BA0050E038
:1014C00040E060E671E082EF92E00E9418060E9420
:1014D000FF00882309F48CCF0E94AA0689CF0E94BE
:1014E000D10B89819A819093ED028093EC028B81DC
:1014F0009C819093EF028093EE028D819E81909368
:10150000F1028093F0021A8219821C821B82A6CFFC
:1015100061E671E0C8010E94250D892B81F62091BA
:10152000F6023091F7022250310945E050E062EFB7
:1015300072E0CE010D960E94430618861F821A861D
:1015400019861C861B866D857E856115710531F0B7
:1015500049895A89CE0107960E94180683ED92E0C8
:101560000E94740280E00E9432028B859C85409725
:1015700068F4CE0107960E94B100CE0107960E9442
:10158000E605CE010D960E94E60599CF20E130E0F8
:1015900050E040E0BE01695F7F4FCE0101960E949E
:1015A0004306CE0101960E94B100CE0101960E9431
:1015B000E60581E00E94320220E230E040E150E0A6
:1015C000BE01695F7F4FCE0101960E944306CE01A6
:1015D00001960E94B100CE0101960E94E605CDCF92
:1015E0008CEE92E00E94E60582EF92E00C94E60514
:1015F0002F923F924F925F926F927F928F929F9223
:10160000AF92BF92CF92DF92EF92FF920F931F9310
:10161000CF93DF93CDB7DEB7CA1BDB0B0FB6F894C1
:10162000DEBF0FBECDBF09942A88398848885F8401
:101630006E847D848C849B84AA84B984C884DF8072
:10164000EE80FD800C811B81AA81B981CE0FD11D56
:101650000FB6F894DEBF0FBECDBFED010895EE0FBB
:10166000FF1F0590F491E02D09940F931F93CF93E2
:10167000DF938230910510F482E090E0E091FA026D
:10168000F091FB0230E020E0B0E0A0E0309799F468
:101690002115310509F44AC0281B390B24303105C6
:1016A000D8F58A819B816115710589F1FB019383CE
:1016B0008283FE0111C0408151810281138148174C
:1016C0005907E0F04817590799F4109761F01296FE
:1016D0000C93129713961C933296CF01DF91CF9102
:1016E0001F910F9108950093FA021093FB02F4CF1B
:1016F0002115310551F04217530738F0A901DB01DC
:101700009A01BD01DF01F801C1CFEF01F9CF90933C
:10171000FB028093FA02CDCFFE01E20FF31F81930B
:1017200091932250310939832883D7CF2091F80231
:101730003091F902232B41F42091020130910301F1
:101740003093F9022093F8022091000130910101B9
:101750002115310541F42DB73EB740910401509158
:101760000501241B350BE091F802F091F902E21714
:10177000F307A0F42E1B3F0B2817390778F0AC01B4
:101780004E5F5F4F2417350748F04E0F5F1F509391
:10179000F9024093F802819391939FCFF0E0E0E04B
:1017A0009CCFCF93DF930097E9F0FC01329713822F
:1017B0001282A091FA02B091FB02ED0130E020E02C
:1017C0001097A1F420813181820F931F2091F8029C
:1017D0003091F9022817390709F061C0F093F90236
:1017E000E093F802DF91CF910895EA01CE17DF0769
:1017F000E8F54A815B819E0141155105B1F7E90188
:10180000FB83EA8349915991C40FD51FEC17FD075B
:1018100061F4808191810296840F951FE90199837B
:101820008883828193819B838A83F0E0E0E0129633
:101830008D919C9113970097B9F52D913C9111973B
:10184000CD010296820F931F2091F8023091F90288
:101850002817390739F6309751F51092FB0210928C
:10186000FA02B093F902A093F802BCCFD383C283EB
:1018700040815181840F951FC817D90761F44E5FCD
:101880005F4F88819981480F591F518340838A8116
:101890009B81938382832115310509F0B0CFF093AA
:1018A000FB02E093FA029ECFFD01DC01C0CF138260
:1018B0001282D7CFB0E0A0E0E0E6FCE00C94FA0A98
:1018C0008C01009751F4CB010E94350B8C01C801AB
:1018D000CDB7DEB7E0E10C94160BFC01E60FF71F65
:1018E0009C0122503109E217F30708F49DC0D90189
:1018F000CD91DC911197C617D70798F0C530D10567
:1019000030F3CE0104978617970708F3C61BD70B51
:101910002297C193D1936D937C93CF010E94D10BF9
:10192000D6CF5B01AC1ABD0A4C018C0E9D1EA09156
:10193000FA02B091FB02512C412CF12CE12C1097B2
:1019400031F58091F8029091F9028815990509F016
:101950005CC04616570608F058C08091000190916F
:101960000101009741F48DB79EB740910401509159
:101970000501841B950BE817F90708F055C0F09393
:10198000F902E093F802F90171836083A0CF8D9191
:101990009C91119712966C90129713967C901397C6
:1019A000A815B90559F56C0142E0C40ED11CCA1442
:1019B000DB0420F1AC014A195B09DA011296159794
:1019C00080F06282738251834083D9016D937C934E
:1019D000E114F10471F0D7011396FC93EE93129782
:1019E00076CF22968C0F9D1FF90191838083F3019E
:1019F000EFCFF093FB02E093FA0269CF4816590645
:101A000008F42C017D01D3019ACFCB010E94350B44
:101A10007C01009749F0AE01B8010E941C0DC8017D
:101A20000E94D10B870153CF10E000E050CF81E03E
:101A300090E0F8940C94350DFB01DC0102C001909C
:101A40000D9241505040D8F70895FB01DC018D9173
:101A5000019080190110D9F3990B0895FB01DC0165
:101A600001900D920020E1F7089510E0C8E5D0E064
:101A700004C0FE010E942F0B2196C935D107C9F77A
:041A8000F894FFCF08
:101A84000000FC028000004014540040105000008C
:101A940000002B018400C2007801F300D100E500AE
:101AA40000000000DB04AE04E3058404A7049404EE
:101AB4008504000000001F028400E30583009905EB
:101AC400090280056105526561647920746F2063A1
:101AD4006F6E6E65637400535441520053544F50FB
:061AE400005445585400B7
:00000001FF
